:020000040800F2
:1000000000500020AD470008954600089D460008B6
:100010009F460008A1460008A34600080000000013
:10002000000000000000000000000000A5460008DD
:10003000A746000800000000A9460008AB460008DB
:10004000F5470008F5470008F5470008F5470008A0
:10005000F5470008F5470008F5470008F547000890
:10006000F5470008F5470008F5470008F547000880
:10007000F5470008F5470008F5470008F547000870
:10008000F5470008F5470008B1460008F5470008A5
:10009000BD460008F5470008F5470008F547000889
:1000A000C9460008D5460008F5470008F54700088E
:1000B000F5470008F5470008F5470008F547000830
:1000C000F5470008F5470008F5470008F547000820
:1000D000F5470008F5470008F5470008F547000810
:1000E000F5470008F5470008F54700080000000044
:1000F0000000000000000000000000000000000000
:0C01000000000000000000005FF808F1A3
:10010C0010B5054C237833B9044B13B10448AFF345
:10011C0000800123237010BDEC01002000000000C2
:10012C006C5B000808B5034B1BB103490348AFF3E4
:10013C00008008BD00000000F00100206C5B00088E
:10014C00034613F8012B002AFBD1181A013870470B
:10015C007047F8B50446E0B190F8913203F0FF0215
:10016C001BB980F8902203F009FC032384F8913228
:10017C0000232546637155F8040B00F06CFE95E8DE
:10018C000E00206800F057FE014620B1022384F8CF
:10019C009132012541E0206800F067FE0028F5D17E
:1001AC0002460127267904F11003C1B28E4203F1F5
:1001BC00280314D800210A4604F5A873C8B2864255
:1001CC0003F1280317D895E80E00206800F04FFEC5
:1001DC0001230546D8B1022284F89122D9E743E9DC
:1001EC00062203F8277C03F8281C03F8252C43F877
:1001FC00102C0130D9E743E9062203F8272C03F829
:10020C00280C03F8252C43F8102C0131D6E7607329
:10021C00206884F8913201F0DFF82846F8BD38B533
:10022C0090F890320446012B10D0012580F89052A2
:10023C00006800F007FE2946204603F0A6FC206863
:10024C0001F0C8F8002084F8900238BD0220FCE7C9
:10025C0010B590F890220446012A0AD0012241736D
:10026C0080F89022006801F0AFF8002084F890022A
:10027C0010BD0220FCE700002DE9F04F044685B0CC
:10028C00006801F0ABF810F4004500F01A84DFF8B8
:10029C001893DFF818832068B0F844301F0402D498
:1002AC0005B0BDE8F08FB0F84460B1B216F00F069F
:1002BC0040F0C38011F0100127D103889BB203EAF0
:1002CC00090343F400430380B0F85030227C9BB206
:1002DC0003EBC20300EB4300B0F80434626AC3F3CF
:1002EC000903E36213446362204603F076FB637BED
:1002FC00002BD0D0A26A002ACDD1637B216843F0B9
:10030C008003A1F84C306273C5E70588ABB215F4D5
:10031C00006521D0B0F8503094F850219BB203EB1B
:10032C00C20300EB4303B3F80C34B4F85621C3F307
:10033C000903C4F86C3104F5267101F09DFA2268AA
:10034C002046138823F070031B051B0D43F080031C
:10035C00138003F033FB9EE71E049CD5038823F027
:10036C0070031B051B0D43F080030380B0F8503065
:10037C0094F850219BB203EBC20300EB4303B3F898
:10038C000C34C3F30903C4F86C318BB1D4F8641189
:10039C0071B1B4F8562101F06FFAD4F86431D4F885
:1003AC006C21294613442046C4F8643103F00CFB3D
:1003BC0021680A88100593B23FF56DAF03F44053E2
:1003CC00B3F5405F3FF467AFB1F8503001F20C4029
:1003DC009BB2C25AD4F86051C2F309023E2DC252EC
:1003EC000DD9EA06C25A4FEA551608BF06F1FF3678
:1003FC0092B242EA862242EA080292B204E09DB925
:10040C00C25A92B242F40042C2520B8823F4804387
:10041C0023F070031B041B0C83F4405343F4004380
:10042C0043F080030B8036E7C25A6E08EF0748BFD3
:10043C00013692B242EA8622DFE730F826301D04FC
:10044C009FB240F1F280282130F8263001FB0641A2
:10045C0023F070031B051B0D43F0800320F826309E
:10046C0091F85C3100F5806CB3B9B0F8503091F86C
:10047C0050219BB2063303EBC2033CF81350C5F377
:10048C000905002D00F0B5802B46B1F85621D1F8A6
:10049C00641101F0F1F9ACE091F8532191F850316D
:1004AC00022A40F08580B0F8505017F4804AD1F8F9
:1004BC0068214FEAC30BADB207F0400E3BD0AB4402
:1004CC000BF1020B3CF81B50C5F30905954213D9EF
:1004DC000022C1F8682130F8232022F4804222F057
:1004EC0070021204120C82F4005242F4004242F0E8
:1004FC00800220F8232004E0521BC1F86821002A56
:10050C00E9D0BEF1000F0DD030F8232022F4E042E8
:10051C0022F070021204120C42F4004242F0C002AB
:10052C0020F82320002D64D0282101FB06412B4606
:10053C00B1F85821ABE75D4406353CF81550C5F3CE
:10054C000905954212D9C1F868A130F8232022F48C
:10055C00804222F070021204120C82F4005242F417
:10056C00004242F0800220F8232004E0521BC1F824
:10057C006821002AE9D0BEF1000F0DD130F82320FC
:10058C0022F4E04222F070021204120C42F40042F7
:10059C0042F0C00220F823205DB3282101FB064164
:1005AC002B46B1F85A2172E70F8FFFFF0080FFFF37
:1005BC0030F8232022F4E04222F070021204120CD4
:1005CC0042F4004242F0C00220F8232091F850314E
:1005DC0030F82320DB0012F4804FB0F8502092B298
:1005EC0055D0023213443CF81350C5F30905002DC5
:1005FC009DD1282171436318D3F86C212A44C3F888
:10060C006C21D3F864212A44C3F86421D3F86821FF
:10061C001AB1D3F860319D4242D2282303FB064322
:10062C00204693F8501103F0CFF939067FF533AE1D
:10063C002822206802FB06FC30F826309BB203EA25
:10064C00090343F4004320F8263004EB0C03D97C57
:10065C00012954D1002106FB0222A1501A7F8AB332
:10066C0017F040075A7C35D00ABBB0F850201B7CE1
:10067C0092B21B0100F2044010441A5AC2F3090250
:10068C001A521A5A92B242F400421A521AE0063224
:10069C0013443CF81350C5F30905002DA9D07FE78E
:1006AC0001F5A8712068214400F0AEFEBDE7012AD7
:1006BC0008D1B0F850201B7C92B200F204401B0110
:1006CC0010441952282303FB0646317C204603F0C4
:1006DC0084F9E0E53AB9B0F850201B7C92B21B01CA
:1006EC0000F20C40C8E7012AECD1B0F850201B7C7A
:1006FC0092B200F20C401B0110441F52E2E7197C2D
:10070C0017F480759A6A4FEAC10A00F5806E1BD106
:10071C00B0F85060B6B2B2440AF1020A3EF81A6060
:10072C00C6F30906964201D39D62CFE7596A921B24
:10073C009A62DA6A3144596232440CF11001DA627D
:10074C00214400F061FEA6E5B0F8505017F0400CC3
:10075C00ADB2554407F4804700F0DB8002353EF81B
:10076C001550BFB2C5F3090595422CBF0022521B90
:10077C009A62002A50D1282303FB06435B7C002B92
:10078C0038D1B0F8502000F2044592B20B012A4443
:10079C00D55AC5F30905D552D55AADB245F4004525
:1007AC00D552B0F8502000F20C4092B21044C25A0C
:1007BC00C2F30902C252C25A92B242F40042C2526D
:1007CC00204603F00AF9002F00F0DB80282303FBFE
:1007DC0006432268197C32F8213023F4E04323F0DD
:1007EC0070031B041B0C43F4404343F0800322F8BA
:1007FC002130C6E0012BE3D1B0F850500B011FFAA9
:10080C0085FC00F204456544EA52B0F8505000F201
:10081C000C40ADB22844D2E76FB130F8212022F45D
:10082C00E04222F070021204120C42F4404242F0F8
:10083C00800220F821204FF0280C0CFB064C9CF871
:10084C003420012A40F09D80DCF824205719CCF884
:10085C002470DA6A2A44DA62DCF83030DCF82020C2
:10086C00934226D39B1ACCF83030282303FB064343
:10087C005D7C93B2002D41D1B0F8505000F2044C85
:10088C00ADB26544090135F801C03E2ACCF3090C20
:10089C0025F801C019D94FEA521CD2066A5A08BF72
:1008AC000CF1FF3C92B242EA8C2242EA080292B26C
:1008BC0010E01BB92A468CF83430D6E700228CF8AD
:1008CC003420CCF830201A46CFE762B96A5A92B27B
:1008DC0042F400426A52282202FB0642128B39462D
:1008EC0000F082FD4DE04FEA520CD2076A5A48BF25
:1008FC000CF1010C92B242EA8C22D8E7012DEAD11C
:10090C00B0F85020090195B200F204422A44535227
:10091C00E1E706353EF81550BFB2C5F3090595421F
:10092C008CBF6246521B9A62002A51D1282303FBCA
:10093C0006435B7C002B39D1B0F8502000F2044503
:10094C0092B20B012A44D55AC5F30905D552D55A92
:10095C00ADB245F40045D552B0F8502000F20C4031
:10096C0092B21044C25AC2F30902C252C25A92B293
:10097C0042F40042C252204603F02FF8002F3FF4FD
:10098C0025AF282303FB06462268317C32F8213040
:10099C009BB223F4E04323F0400383F0300343F491
:1009AC00004343F0800322F8213074E4012BE2D1A0
:1009BC00B0F850500B011FFA85FC00F20445654459
:1009CC00EA52B0F8505000F20C40ADB22844D1E7D6
:1009DC006FB930F8212022F4E04222F070021204A8
:1009EC00120C42F4404242F0800220F821204FF0D9
:1009FC00280C0CFB064C9CF83420012AC1D1DCF8E5
:100A0C0024205719CCF82470DA6A2A44DA62DCF80C
:100A1C003030DCF82020934226D39B1ACCF83030AF
:100A2C00282303FB06435D7C93B2002D3ED1B0F826
:100A3C00505000F20C4CADB26544090135F801C0C0
:100A4C003E2ACCF3090C25F801C019D94FEA521CE7
:100A5C00D2066A5A08BF0CF1FF3C92B242EA8C22D1
:100A6C0042EA080292B210E01BB92A468CF83430E4
:100A7C00D6E70022CCF830208CF834201A46CFE789
:100A8C004AB96A5A92B242F400426A52282202FBD4
:100A9C000642528B23E74FEA520CD2076A5A48BFE0
:100AAC000CF1010C92B242EA8C22DBE7012DEDD164
:100ABC00B0F85050AAB200F20C4515440A01AB52E2
:100ACC00E4E7460512D522682046B2F8443023F4F8
:100ADC0080631B041B0CA2F8443002F08AFF2946E9
:100AEC00204605B0BDE8F04FFFF7B2BB41040AD574
:100AFC002268B2F8443023F480431B041B0CA2F888
:100B0C004430FFF7CDBB820405D52268B2F84430DF
:100B1C0023F40053F1E7C30419D522682046B2F838
:100B2C00403023F004031B041B0CA2F84030B2F835
:100B3C00403023F008031B041B0CA2F8403002F0D9
:100B4C007BFF2268B2F8443023F48053D5E70705C5
:100B5C0048D568462368064619461A4603F120050F
:100B6C0032F8047B954226F8027BF9D1B3F8402089
:100B7C0092B242F00102A3F84020B3F8402022F0D8
:100B8C0001021204120CA3F84020B3F844205605BD
:100B9C00FBD5B3F8442022F480621204120CA3F8A3
:100BAC00442030F8022B21F8042B8D42F9D1B3F8F4
:100BBC004020204692B242F00802A3F84020B3F83D
:100BCC00442022F400621204120CA3F84420B3F85F
:100BDC00402092B242F00402A3F8402002F01CFF25
:100BEC00FFF75EBB82050DD522682046B2F8443073
:100BFC0023F400731B041B0CA2F8443002F0F5FE26
:100C0C00FFF74EBBC3057FF54BAB2268B2F84430FF
:100C1C0023F4807371E700BF70B52824054601F0FA
:100C2C000700444311F0800F14BF04F1100104F5C8
:100C3C00A87105EB040615BF01240024747486F812
:100C4C00514114BF49194919022BCB7008BF00231D
:100C5C00087008BF0B710A6195F89032012B09D00E
:100C6C000123286885F8903200F012F9002085F8ED
:100C7C00900270BD0220FCE7282301F007025343C9
:100C8C0011F0800F10B5044618BF03F11001184481
:100C9C000BBF03F5A8710123002309190ABF091919
:100CAC00437480F851310A7094F89032012B09D0BA
:100CBC000123206884F8903200F04CFA002084F86C
:100CCC00900210BD0220FCE770B501F00705282149
:100CDC0000266943441801F5A8710144C4E959235D
:100CEC00C4F86C6184F8516184F85051006800F0CC
:100CFC008BFB304670BD282301F0070103FB01007C
:100D0C00D0F86C01704770B501F0070528216943D4
:100D1C0044180026C4E9092301221031014484F847
:100D2C0034202363E66262742574006800F06CFB67
:100D3C00304670BD38B5037901F00705AB42044667
:100D4C002AD311F0800F4FF028031CD001226B43E3
:100D5C0003F11001034401445A7401230D708B708C
:100D6C0094F890229A4219D0206884F8903200F0BE
:100D7C00C2FA25B9206804F5267100F033FB002077
:100D8C0084F8900238BD00224B4303F5A87103444C
:100D9C00014483F85121E0E70120F3E70220F1E759
:100DAC0038B5027901F00F039A42044626D3282362
:100DBC0001F00702534311F0800F14BF03F110012F
:100DCC0003F5A87118444FF0000515BF012300234B
:100DDC000919091914BF437480F851318D700A70C8
:100DEC0094F89032012B0BD00123206884F89032B8
:100DFC0000F0A1FA284684F8905238BD0120FCE797
:100E0C000220FAE710B5282411F0800F1BBF01F067
:100E1C00070104FB010004FB0100103008BF00F5C2
:100E2C00A87099B21AB90273C180002010BD0122BA
:100E3C0083600273F9E784B004A800E90E00002077
:100E4C0004B0704703464FF43F420020A3F844001F
:100E5C00A3F840207047B0F8403023F47C535B0477
:100E6C005B0CA0F8403000207047002070471FB585
:100E7C00044604A800E90E0000200123A4F8403029
:100E8C00A4F84000A4F84400A4F8500004B010BD2D
:100E9C00F0B50A78CE7830F82240034624F4EC44BE
:100EAC0024F070042404240C032E4CD8DFE806F044
:100EBC0002484644304644F4007448F280073C43F0
:100ECC0023F8224033F82240DFF87CC2A4B204EAB3
:100EDC000C0414433C4323F822400C7B03EB021E0E
:100EEC00002C40F08B80CD884C786D086D0064B37D
:100EFC00B3F85040A4B27444A4F8005433F8221050
:100F0C004F060AD533F82250ADB205EA0C0545F46C
:100F1C00004545F0C00523F8225033F822108B4CC5
:100F2C0089B2012E01EA040101D081F0200141F4C3
:100F3C00004141F08001BFE044F4C0640020BCE7F4
:100F4C0044F48064FAE70120B7E7B3F85040A4B248
:100F5C007444A4F80854B3F85040A4B27444B4F8E0
:100F6C000C54C5F30905A4F80C540D693E2D2FD96A
:100F7C00B4F80C146E09ED0608BF06F1FF3689B201
:100F8C0041EA86216FEA41416FEA514189B2A4F8E6
:100F9C000C1433F822104F040DD533F8221021F421
:100FAC00E04121F070010904090C41F4404141F089
:100FBC00800123F82210664CCAB9198889B22140E5
:100FCC0081F4405141F4004141F080011980F0BDA1
:100FDC0015B9B4F80C14D5E7E907B4F80C144FEABA
:100FEC00550648BF013689B241EA8621CEE733F86F
:100FFC00221089B2214081F4005198E7022E33F877
:10100C0022505CD1ADB205EA0C0545F4014545F022
:10101C00800523F82250B3F850400D89A4B26D0816
:10102C0074446D00A4F800544D89B3F850406D0819
:10103C00A4B274446D00A4F808544978002946D130
:10104C0033F822104E040DD533F8221021F4E04170
:10105C0021F070010904090C41F4404141F0800178
:10106C0023F8221033F822104D060DD533F8221038
:10107C0021F4E04121F070010904090C41F4004114
:10108C0041F0C00123F8221048F2800433F82210FA
:10109C0021F4804121F070010904090C81F44051C4
:1010AC00214323F8221033F8221021F4E04121F0DF
:1010BC0040010904090C214323F8221087E725F489
:1010CC00E24525F070052D042D0C3D43A1E733F8C6
:1010DC0022104C040DD533F8221021F4E04121F0FC
:1010EC0070010904090C41F4404141F0800123F8DE
:1010FC00221033F8221049060DD533F8221021F4B2
:10110C00E04121F070010904090C41F4004141F067
:10111C00C00123F8221033F822100C4C89B2214064
:10112C00012E18BF81F0200141F4004141F08001F3
:10113C0023F8221033F8221021F4804121F07001A1
:10114C000904090CF3E600BF8F8FFFFFBF8FFFFF71
:10115C008FBFFFFF4A780B78097BD9BB0AB330F8F5
:10116C00232051060DD530F8232022F4E04222F042
:10117C0070021204120C42F4004242F0C00220F839
:10118C00232030F8232022F4E04222F04002120403
:10119C00120C42F4004242F0800220F8232000207E
:1011AC00704730F8232052040DD530F8232022F458
:1011BC00E04222F070021204120C42F4404242F05F
:1011CC00800220F8232030F8232022F4804222F0E1
:1011DC007002DCE7002A48D130F8232051040DD5E9
:1011EC0030F8232022F4E04222F070021204120C98
:1011FC0042F4404242F0800220F8232030F82320B1
:10120C0052060DD530F8232022F4E04222F0700271
:10121C001204120C42F4004242F0C00220F82320C7
:10122C0048F2800130F8232022F4E04222F07002D0
:10123C001204120C42F4004242F0C00220F82320A7
:10124C0030F8232022F4804222F070021204120C97
:10125C000A4320F8232030F8232022F4E04222F025
:10126C0040021204120C0A4397E730F82320510471
:10127C000DD530F8232022F4E04222F07002120443
:10128C00120C42F4404242F0800220F8232030F845
:10129C00232052060DD530F8232022F4E04222F010
:1012AC0070021204120C42F4004242F0C00220F808
:1012BC00232048F2800130F8232022F4E04222F06F
:1012CC0070021204120C42F4404242F0800220F8E8
:1012DC00232030F8232022F4E04222F040021204B2
:1012EC00120C0A4320F8232030F8232022F48042E9
:1012FC0022F07002B5E74B780A788BB130F82230C7
:10130C0023F4E04323F040031B041B0C83F0100375
:10131C0043F4004343F0800320F822300020704750
:10132C0030F8223023F4804323F070031B041B0C91
:10133C0083F48053ECE70B7B3BBB4B780A7833B3DD
:10134C0030F822305B060DD530F8223023F4E04320
:10135C0023F070031B041B0C43F4004343F0C00345
:10136C0020F82230CB78012B0FD030F8223023F428
:10137C00E04323F040031B041B0C83F0200343F4D5
:10138C00004343F0800320F822300020704730F8EF
:10139C0022305B040DD530F8223023F4E04323F0E7
:1013AC0070031B041B0C43F4404343F0800320F8F0
:1013BC00223030F8223023F4804323F070031B04D6
:1013CC001B0C83F44053DAE711B98023A0F84C309E
:1013DC00002070470020704700207047B0F8440090
:1013EC0080B270470020704700EB4202013302F5D7
:1013FC0080625B0802EB8303934200D1704731F8A3
:10140C00020B22F8040BF7E72DE9F0410C46497862
:10141C0005460129227B40F01E81D4F810E0A66914
:10142C006169764528BF76460ABBB6B2E288334678
:10143C00FFF7DAFFB5F85020217890B205F204429C
:10144C00090102448E52227835F8223023F4E0430D
:10145C0023F040031B041B0C83F03003002043F4E7
:10146C00004343F0800325F82230BDE8F081E27898
:10147C002778022A236A4FEA071C40F0D6809E4543
:10148C0030F8272080F0BA8022F4E04222F070027B
:10149C001204120C42F4014242F0800220F8272080
:1014AC0030F82780B0F850209B1B18F040082362BE
:1014BC0097B2B3B252D000F20C423A4422F80C303C
:1014CC006289FFF791FF276A236961699F428ABF8E
:1014DC00BB1B002337466278314423626161BBB287
:1014EC0082BBB5F85000267882B205F20440360172
:1014FC001044325A3E2FC2F30902325214D9FA0662
:10150C00325A4FEA571C08BF0CF1FF3C92B242EA28
:10151C008C226FEA42426FEA524292B232522289D4
:10152C002846FFF761FF8EE70FB9325AF1E7325ABE
:10153C004FEA570CFF0748BF0CF1010C92B242EA7C
:10154C008C22EAE7012AEAD1B5F85020207896B22D
:10155C0005F20442000132448352E0E700F20442F7
:10156C003A4422F80C302289FFF73EFF276A2369A0
:10157C0061699F428ABFBB1B434637466278314440
:10158C0023626161BBB26ABBB5F85000267882B2A7
:10159C0005F20C4036011044325A3E2FC2F30902B8
:1015AC00325211D9FA06325A4FEA571C08BF0CF1C5
:1015BC00FF3C92B242EA8C226FEA42426FEA5242FC
:1015CC0092B232526289ABE70FB9325AF4E7325A0F
:1015DC004FEA570CFF0748BF0CF1010C92B242EADC
:1015EC008C22EDE7012AEDD1B5F85020207896B287
:1015FC0005F20C42000132448352E3E722F4E2424A
:10160C0022F070021204120C42F4004242F08002EA
:10161C0020F82720B0F850209BB296B200F204427A
:10162C00324422F80C3022897BE730F827209B1BB0
:10163C0012F0400FB0F850202362B3B296B206D02D
:10164C0000F20C42324422F80C30628969E700F255
:10165C0004423244E5E7002A31D1A069236921789C
:10166C00984284BFC21A1846A261B5F850200901ED
:10167C0093B205F20C421A448B5A3E28C3F3090369
:10168C008B520DD98B5A4609C00608BF06F1FF369E
:10169C009BB243EA86236FEA43436FEA53430BE062
:1016AC0008B9535AF7E7C3078B5A4FEA500648BF9D
:1016BC0001369BB243EA86239BB253526AE0E3782D
:1016CC00022B7CD100294BD1B0F8501020788BB272
:1016DC0005F2044100011944435AC3F30903435270
:1016EC0023693E2B20D9425A5E09DF0608BF06F15A
:1016FC00FF3692B242EA86226FEA42426FEA5242C7
:10170C0092B24252B5F85010227805F20C4089B2D0
:10171C0012010144505A3E2BC0F30900505210D80C
:10172C00002B43D1535A15E00BB9425AE4E7DA07C0
:10173C00425A4FEA530648BF013692B242EA862219
:10174C00DEE75809DF06535A08BF00F1FF309BB2A1
:10175C0043EA80236FEA43436FEA53439BB25352ED
:10176C00E369BBB144F24003227835F8221003EA56
:10177C0001008B4300D068B935F8223023F4E043E4
:10178C0023F070031B041B0C43F4004343F0C00311
:10179C0025F82230227835F8223023F4804323F0C8
:1017AC0070031B041B0C83F4405357E65808DE07E8
:1017BC00535A48BF01309BB243EA8023CEE7012B3A
:1017CC0058D1A3692269934294BF0020981AA06152
:1017DC0088BF13460029DDD1B5F8501020788AB2A5
:1017EC0005F2044100011144425A3E2BC2F3090296
:1017FC00425229D9DA06425A4FEA531608BF06F16B
:10180C00FF3692B242EA86226FEA42426FEA5242B5
:10181C0092B24252B5F85010227805F20C4089B2BF
:10182C0012010144505A3E2BC0F30900505217D8F4
:10183C00002B3FF436AF5808DB07535A48BF013032
:10184C009BB243EA802337E70BB9425ADCE7425A92
:10185C005E08DF0748BF013692B242EA8622D7E71C
:10186C005809DE06535A08BF00F1FF309BB243EA19
:10187C00802310E70120F8E500EB4202F0B502F5F9
:10188C0080625D080C4617462E46023436B9DB07DB
:10189C0044BF32F8253001F81530F0BD37F8040B91
:1018AC00013E80B204F8020C000A04F8010CECE7CB
:1018BC0038B50E4B054618784FF47A73B3FBF0F33A
:1018CC000B4A1068B0FBF3F000F0D2FC044658B998
:1018DC000F2D09D8024629464FF0FF3000F088FC46
:1018EC002046044B1D6038BD0120FCE7040000209D
:1018FC000000002008000020074A08B513680320E8
:10190C0043F01003136000F061FC0F20FFF7D0FFD1
:10191C0002F0DCFE002008BD00200240034A044B0C
:10192C0011681B780B441360704700BF080200203D
:10193C0004000020014B1868704700BF080200200B
:10194C0038B50446FFF7F6FF0546631C1EBF044B73
:10195C001B78E418FFF7EEFF431BA342FAD338BD04
:10196C00040000202DE9F341054638B30368DB077A
:10197C0010D42B689F075ED42B68190700F1958053
:10198C002B685A0700F1C180E869002840F02C81CF
:10199C00002029E0904C636803F00C03042B07D063
:1019AC00636803F00C03082B0AD16368DE0307D5C8
:1019BC0023689C03DDD56B68002BDAD1012013E082
:1019CC006B68B3F5803F12D1236843F480332360F6
:1019DC00FFF7B0FF064623689803CAD4FFF7AAFFA7
:1019EC00801B6428F7D9032002B0BDE8F0819BB9B5
:1019FC00236823F480332360236823F4802323603B
:101A0C00FFF798FF064623689903B2D5FFF792FFBC
:101A1C00801B6428F7D9E6E7B3F5A02F236803D120
:101A2C0043F480232360CFE723F4803323602368BF
:101A3C0023F48023CBE7684C636813F00C0F07D0BA
:101A4C00636803F00C03082B10D16368DA030DD420
:101A5C0023689B0702D52B69012BAFD123686A69D8
:101A6C0023F0F80343EAC203236085E72A695B4B42
:101A7C006AB101221A60FFF75DFF064623689F07D3
:101A8C00ECD4FFF757FF801B0228F7D9ABE71A609D
:101A9C00FFF750FF0646236898077FF56DAFFFF7F9
:101AAC0049FF801B0228F6D99DE7AA694A4E4B4B89
:101ABC00E2B10122C3F88024FFF73CFF0446736AAD
:101ACC009B070DD54FF4FA52454B1B68B3FBF2F351
:101ADC00019300BF019B5A1E0192002BF9D14FE7D5
:101AEC00FFF728FF001B0228E9D97CE7C3F8802404
:101AFC00FFF720FF0446736A9F077FF541AFFFF79E
:101B0C0019FF001B0228F6D96DE7334CE369D800A6
:101B1C0024D40127E36943F08053E361E36903F0C4
:101B2C0080530093009B2F4E3368D90518D5EB6872
:101B3C00012B26D1236A43F001032362FFF7FAFE3F
:101B4C0041F288380646236A9B073FD5002F3FF4A5
:101B5C001BAFE36923F08053E36115E70027E2E74D
:101B6C00336843F480733360FFF7E4FE80463368D8
:101B7C00DA05DCD4FFF7DEFEA0EB08006428F6D90A
:101B8C0031E7ABB9236A41F2883823F001032362B1
:101B9C00236A23F004032362FFF7CCFE0646236A74
:101BAC009807D3D5FFF7C6FE801B4045F7D91AE737
:101BBC00052B236A03D143F004032362BAE723F015
:101BCC0001032362236A23F00403B6E7FFF7B2FE96
:101BDC00801B4045B7D906E7001002400000424286
:101BEC0000000020007000402A4C636803F00C03D6
:101BFC00082B3ED00022284B02281A662CD1FFF766
:101C0C0099FE06462368990120D42B6AB3F5803FD0
:101C1C0005D16268A96822F400320A436260696ADD
:101C2C0062680B4322F474121343012263601A4B53
:101C3C001A66FFF77FFE054623689A013FF5A8AEAA
:101C4C00FFF778FE401B0228F6D9CCE6FFF772FEB0
:101C5C00801B0228D6D9C6E6FFF76CFE0546236822
:101C6C009B017FF595AEFFF765FE401B0228F6D968
:101C7C00B9E601283FF4B8AE63682A6A03F48031F0
:101C8C0091427FF49BAE6A6A03F4701393423FF463
:101C9C007FAE93E600100240000042420122014B4D
:101CAC00DA647047000042420D4A536803F00C019D
:101CBC00082912D10B48C3F38341DB03405C09D5DF
:101CCC005368094AC3F340435043084AD35CB0FB02
:101CDC00F3F07047064B584370470348704700BFFA
:101CEC00001002409C5B000800127A00AC5B0008FC
:101CFC0000093D002DE9F0410D46044610B90120C4
:101D0C00BDE8F081444A136803F007038B4228D3E3
:101D1C0021688E0730D4CA0743D43F4A136803F0B6
:101D2C000703AB4265D822683C4D12F0040F6CD10E
:101D3C00130706D56B68226923F4605343EAC20388
:101D4C006B60FFF7B1FF6B68354AC3F30313D35CC9
:101D5C00D840344B1860344B1868FFF7A9FD0020AD
:101D6C00CEE7136823F007030B431360136803F0EB
:101D7C0007038B42C3D1CBE7284B11F0040F1EBFD6
:101D8C005A6842F4E0625A60080742BF5A6842F44B
:101D9C0060525A605A68A06822F0F00202435A60FE
:101DAC00B9E762681D4E012A33681AD113F4003F5B
:101DBC00A5D0736841F2883823F003031343736092
:101DCC00FFF7B8FD07467368626803F00C03B3EBCA
:101DDC00820FA2D0FFF7AEFDC01B4045F3D9032004
:101DEC008EE7022A02D113F0007FE1E713F0020F15
:101DFC00DEE7136823F007032B431360136803F02B
:101E0C000703AB427FF47BAF8DE76B68E16823F48B
:101E1C00E0630B436B608BE7002002400010024034
:101E2C00845B00080000002008000020044B054AD9
:101E3C005B68C3F3C223D35C034A1068D840704775
:101E4C0000100240945B0008000000207047000066
:101E5C0010B5044CA3681B0603D5FFF7F7FF8023CE
:101E6C00A37210BD0010024003682DE9F341D9079D
:101E7C00054620D5364CE369DA0032D40126E369F5
:101E8C0043F08053E361E36903F080530193019BBA
:101E9C00304F3B68DB0526D5236A13F4407336D1EB
:101EAC00236A6A6823F44073134323621EB1E36907
:101EBC0023F08053E3612868830706D52449AB6877
:101ECC004A6822F440421A434A6010F010001BD0BA
:101EDC001F4AE9685368002023F480030B435360C6
:101EEC0012E00026D4E73B6843F480733B60FFF7B5
:101EFC0021FD80463B68D805CED4FFF71BFDA0EB37
:101F0C0008006428F6D9032002B0BDE8F0816A68A5
:101F1C0002F440729A42C3D001200F4A236AC2F8DD
:101F2C004004002023F44071C2F840042162D90718
:101F3C00B6D5FFF7FFFC41F288380746236A9A07AB
:101F4C00AED4FFF7F7FCC01B4045F7D9DBE700BF69
:101F5C00001002400070004000004242022808B508
:101F6C0044D0102803D0012822D0002034E0254B87
:101F7C005A68186810F080702ED0C2F38341224842
:101F8C00D20348BF5A68405C41BF2049C2F340426B
:101F9C00895C1F4A5B684CBFB2FBF1F21D4A5B02C5
:101FAC0002FB00F018D403234000B0FBF3F013E065
:101FBC0040F20231134A136A1940B1F5817F1ED0E9
:101FCC0003F44073B3F5007F07D149F64043506AE0
:101FDC0010F0020018BF184608BDB3F5407FC4D1FD
:101FEC0010684FF2244310F40030F3E7FFF71EFFA4
:101FFC00044B5B68C3F3813301335B00D5E74FF4CB
:10200C000040E9E700100240AE5B0008BE5B000830
:10201C0000127A0000093D002DE9F74F0022164608
:10202C00644F654BDFF894C1DFF894E10D6835FA25
:10203C0006F402D103B0BDE8F08F4FF0010808FAA6
:10204C0006F805EA080438EA05057BD14D68032D2E
:10205C0007D8013D022D00F28880DFE805F0969B41
:10206C00A100122D00F099806ED8112D00F08F80F8
:10207C00FF2C98BF82464FF00F0988BF00F1040A6D
:10208C004FEA8605DAF8008088BF203D09FA05FB87
:10209C0028EA0B0802FA05F548EA0505CAF80050CB
:1020AC00D1F804A01AF0805F4CD0BD6926F003086B
:1020BC0045F00105BD61BD6908F1804805F00105D9
:1020CC00019508F5803806F0030B019D4FEA8B0B48
:1020DC00D8F8085009FA0BF925EA0909394DA84234
:1020EC0062D005F58065A84260D005F58065A842F0
:1020FC005ED005F58065A8420CBF0325042505FAC2
:10210C000BF545EA0905C8F808509D681AF4801FBC
:10211C0014BF2543A5439D60DD681AF4001F14BF4E
:10212C002543A543DD605D681AF4003F14BF2543C9
:10213C00A5435D601D681AF4803F14BF2C4325EA4B
:10214C0004041C60013671E7DFF87C904D450CD01F
:10215C0017D8A9F580194D4507D009F570294D45BB
:10216C0003D0A9F580194D4582D18A68D2B1012AD4
:10217C0008BFC0F810804FF0080218BFC0F81480D8
:10218C0076E76545F1D07545EEE7CA6870E7CA6831
:10219C0004326DE7CA6808326AE7CA680C3267E72E
:1021AC00002265E7042263E70025A8E70125A6E7DE
:1021BC000225A4E700100240000401400000311089
:1021CC0000003210000801400000221007490302F1
:1021DC00CA6803F4E06322F4E0621204120C1343A5
:1021EC0043F0BF6343F40033CB60704700ED00E075
:1021FC00164B30B5DC68C4F30224C4F10703251D6B
:10220C00042B28BF0423062D4FF0FF3598BF002464
:10221C0005FA03F388BF033C21EA0303A34005FA44
:10222C0004F422EA0402002843EA0203ACBF00F1E2
:10223C006040074A4FEA0313DBB2ABBF00F56140C5
:10224C0000F00F0080F80033135430BD00ED00E0B7
:10225C0014ED00E0002808DB0123420900F01F0008
:10226C0003FA00F0014B43F82200704700E100E054
:10227C000138B0F1807F0BD24FF0E023F021054AFA
:10228C00586182F823100020072298611A61704768
:10229C000120704700ED00E070477047036870B58F
:1022AC001D685E680446B00626D5A90724D5A26A27
:1022BC00D2065EBFA26A42F40072A2629A6802F46D
:1022CC006022B2F5602F10D1227B72B95A6822F0CD
:1022DC0020025A60A36A23F48073A362A36AD80411
:1022EC005EBFA36A43F00103A3622046FFF7D4FF4D
:1022FC006FF0120223681A60310630D56A072ED5AA
:10230C00A36ADB065EBFA36A43F40053A36223688F
:10231C009A6802F4E042B2F5E04F0AD05A685005D0
:10232C0016D49A6802F46022B2F5602F10D1227B89
:10233C0072B95A6822F080025A60A36A23F480535F
:10234C00A362A36AD9055EBFA36A43F00103A3622B
:10235C00204601F0F5FE6FF00C0223681A6072063D
:10236C000CD5EB070AD5A36A204643F48033A3624D
:10237C00FFF793FF6FF0010223681A6070BD000035
:10238C00002337B50193036804469A68D20702D537
:10239C00002003B030BD9A6842F001029A60144BE1
:1023AC00144A1B68B3FBF2F30193019BE3B9FFF7EB
:1023BC00C1FA054623689B68DB07E9D4FFF7BAFA34
:1023CC00401B0228F6D923689B6813F00103F1D156
:1023DC00A26A012042F01002A262E26A84F8243060
:1023EC0042F00102E262D4E7019B013BDCE700BF53
:1023FC000000002040420F0038B5036804469A687C
:10240C00D10701D4002038BD9A6822F001029A60ED
:10241C00FFF790FA054623689B68DB07F2D5FFF7B8
:10242C0089FA401B0228F6D923689B68DA07F2D593
:10243C00A36A012043F01003A362E36A43F0010393
:10244C00E362E0E7F8B5044600286ED0836A23B94E
:10245C00C36280F8243002F009F82046FFF7CCFF65
:10246C00A36A13F0100362D1002860D1A26AE56957
:10247C00616822F4885222F0020242F002022943DF
:10248C00A568A262227BB5F5807F41EA420137D074
:10249C00012D14BF00274FF48077267D012E06D125
:1024AC0082BBA269013A47EA423646F400672268C9
:1024BC00B5F5807F566826F4694646EA07065660ED
:1024CC0097681D4E06EA070646EA0106966001D09B
:1024DC00012D02D12369013B1B05D56A25F470053A
:1024EC002B43D3629268154B1340994213D10023AE
:1024FC00E362A36A23F0030343F00103A362F8BD74
:10250C002F46CAE7A26A42F02002A262E26A42F0B7
:10251C000102E262CBE7A36A23F0120343F010033B
:10252C00A362E36A43F00103E3620120E7E7A36AD5
:10253C0043F01003A362F8E7FDF7E1FFFE0E1FFF67
:10254C00002373B5019390F824300446012B62D01C
:10255C00012380F82430FFF74FFF2046FFF710FFD0
:10256C00054600282FD1A36A022023F4885323F0B8
:10257C00020343F00203A362284B1E68FFF7EEFC34
:10258C00B6FBF0F676000196019B03BB22689368BC
:10259C0043F008039360FFF7CDF9064623689A6869
:1025AC00110718D49A6842F004029A60FFF7C2F936
:1025BC00064623689B685B0723D4A36A23F00303B6
:1025CC0043F00103A362002384F8243016E0019B3E
:1025DC00013B0193D8E7FFF7ADF9801B0A28DDD941
:1025EC0023689B681807D9D5A36A012523F0120329
:1025FC0043F01003A362002384F82430284602B071
:10260C0070BDFFF797F9801B0A28D2D923689B6805
:10261C005A07CED5E8E70225F0E700BF00000020FE
:10262C0010B590F824300446012B4ED0012380F8CD
:10263C002430FFF7A5FE002843D1A36A244A23F4D3
:10264C00405323F0010343F48053A3622368934265
:10265C0005D1A2F58062526812F4702F29D1A26ABA
:10266C0022F48012A262A26A12F4807208BFE262A3
:10267C00002284F824206FF004021A605A6842F099
:10268C0080025A605A68520512D49A6802F4E042E9
:10269C00B2F5E04F11D10E4A934205D1A2F58062FA
:1026AC00526812F4702F08D19A6842F402129A60A0
:1026BC0010BDA26A42F48012D4E79A6842F4004238
:1026CC00F5E7002384F82430F2E70220F0E700BF9E
:1026DC00002801400329036807D0042903D00229EC
:1026EC0005D1186C7047986C7047586C7047D86B54
:1026FC0070470000F7B50246002092F82430D2F85B
:10270C0008C0012B019000F0CF80012782F82470C3
:10271C001368D1E90056BCF1000F7AD1BE4272D1D8
:10272C0060469C6BA40DA40544EAC5349C639C686C
:10273C00E40707D49C688F6924F4E04424F0010476
:10274C003C439C604C7D012C0DD18F69B7F5E04F5B
:10275C0017BF906A5F6840F02000906212BF20465D
:10276C0047F480675F600F7D012F05D1002C70D17D
:10277C005C6844F480545C60092D4FF00707D1F875
:10278C0008E005EB45046AD9D3F80CC01E3CA74001
:10279C002CEA07070EFA04F43C43DC60A5F11004A4
:1027AC00012C98BF9F68DFF804C19CBF47F4000759
:1027BC009F60022ECF685CD0032E60D0012E64D1B6
:1027CC00596901EA0C0139435961012C16D8384971
:1027DC008B4263D19968090210D49968102D41F489
:1027EC00000199600AD1334B33491B68B3FBF1F3F9
:1027FC000A214B430193019B002B4CD1002382F8FF
:10280C00243003B0F0BD946A384644F0200494623E
:10281C008DE71F27D1F810C0A6EB0C0404EB840441
:10282C000F34A74047F44017B4456FEA07070CD3A1
:10283C00D3F838E00CF1FF3C05FA04F444EA0C54EC
:10284C000EEA07073C439C6371E79C6B27409F6330
:10285C006DE7906A40F02000906238468CE7D3F820
:10286C0010C0A7402CEA07070EFA04F427431F6197
:10287C0094E7996901EA0C0139439961A5E7D96993
:10288C0001EA0C013943D9619FE7196A01EA0C018D
:10289C003943196299E7019B013BABE7936A01202D
:1028AC0043F020039362A9E70220AAE700F0FFFFA0
:1028BC00002401400000002040420F00036A026A1D
:1028CC0070B522F001020262446882690D6822F040
:1028DC0073022A438D6823F002032B430A4DA8424E
:1028EC000BD1CD6823F008032B4324F44074D1E9B9
:1028FC000556354323F004032C43446082614A6837
:10290C004263036270BD00BF002C0140036A026A7F
:10291C0070B522F4807202624468C2690D6822F0BC
:10292C0073022A438D6823F4007343EA05230B4D8D
:10293C00A8420DD1CD6823F4006343EA052324F4A7
:10294C004054D1E90556354323F4806344EA051419
:10295C004460C2614A68C263036270BD002C0140CE
:10296C00036A026A30B522F4805202624468C2697A
:10297C000D6822F4E64242EA05228D6823F40053E6
:10298C0043EA0533064DA84202BF4D6924F4804446
:10299C0044EA85144460C2614A680264036230BD33
:1029AC00002C014090F83C200346012A4FF0020015
:1029BC0009D01A6883F83D0051610020012283F888
:1029CC003C0083F83D207047704770477047704754
:1029DC007047036870B5DD681E690446B1070DD5F4
:1029EC00AA070BD56FF002021A61012202779B69CC
:1029FC009B0769D0FFF7EAFF00232377710710D5F7
:102A0C006A070ED56FF00402236820461A61022271
:102A1C0022779B6913F4407F5CD0FFF7D7FF00232C
:102A2C00237733070FD528070DD56FF008022368DD
:102A3C0020461A6104222277DB69990750D0FFF7F0
:102A4C00C5FF00232377F20610D5EB060ED56FF0E9
:102A5C001002236820461A6108222277DB6913F4DE
:102A6C00407F43D0FFF7B2FF00232377F00708D550
:102A7C00E90706D56FF00102236820461A61FFF7BB
:102A8C00A3FF320608D52B0606D56FF0800223680B
:102A9C0020461A6100F039FA700608D5690606D589
:102AAC006FF04002236820461A61FFF791FFB206CF
:102ABC0022D5AB0620D56FF0200223682046BDE856
:102ACC0070401A6100F020BAFFF77FFF2046FFF735
:102ADC007EFF91E7FFF779FF2046FFF778FF9EE72F
:102AEC00FFF773FF2046FFF772FFAAE7FFF76DFFB2
:102AFC002046FFF76CFFB7E770BD00001E4A036865
:102B0C0090420AD0B0F1804F07D0A2F59432904297
:102B1C0003D002F58062904215D14A6823F070030D
:102B2C001343154A90420AD0B0F1804F07D0A2F55A
:102B3C009432904203D002F58062904203D1CA686D
:102B4C0023F4407313434A6923F080031343036057
:102B5C008B68C3620B688362074B984204BF0B6996
:102B6C000363012343610369DB0742BF036923F05D
:102B7C0001030361704700BF002C014010B50446EF
:102B8C0030B390F83D3003F0FF021BB980F83C20C5
:102B9C0001F0A2FC0223206884F83D30211DFFF7D0
:102BAC00ADFF0123002084F8463084F83E3084F8D1
:102BBC003F3084F8403084F8413084F8423084F857
:102BCC00433084F8443084F8453084F83D3010BDEF
:102BDC000120FCE7036A026A70B522F0100202625F
:102BEC00446882690D6822F4E64242EA05228D6847
:102BFC0023F0200343EA05130B4DA8420DD1CD68F9
:102C0C0023F0800343EA051324F44064D1E905560C
:102C1C00354323F0400344EA8504446082614A68EA
:102C2C008263036270BD00BF002C014070B590F848
:102C3C003C300546012B53D00120082A85F83C0076
:102C4C003DD006D8C2B1042A28D0002385F83C30E8
:102C5C0070BD0C2AF9D12868FFF782FE2B68096930
:102C6C00DA6942F40062DA61DA6922F48062DA61CC
:102C7C00DA6942EA012231E02868FFF71FFE2B686F
:102C8C0009699A6942F008029A619A6922F0040271
:102C9C009A619A690A439A610020D6E72868FFF77F
:102CAC0099FF2B6809699A6942F400629A619A69E2
:102CBC0022F480629A619A6942EA0122EBE7286861
:102CCC00FFF724FE2B680969DA6942F00802DA6121
:102CDC00DA6922F00402DA61DA690A43DA61DBE7C5
:102CEC000220B5E710B50124036A01F01F018C40E6
:102CFC0023EA04030362036A8A401A43026210BD8A
:102D0C0010B5044629B990F83E30012B21D0012092
:102D1C0010BD042907D190F83F30012BF7D10223C5
:102D2C0084F83F3018E0082907D190F84030012B87
:102D3C00EDD1022384F840300EE090F84130012BA5
:102D4C00E5D10429EBD00829F3D0022380F84130D7
:102D5C0002E0022380F83E3001222068FFF7C2FF18
:102D6C0023680E4A93420AD15A6C42F400425A64C8
:102D7C009A6802F00702062A0BD10020C8E7B3F1CB
:102D8C00804FF5D0064A9342F2D002F5806293420E
:102D9C00EED01A6842F001021A60EEE7002C0140F6
:102DAC0000040040FFF7ACBF10B50424036A01F027
:102DBC000F018C4023EA04030362036A8A401A431E
:102DCC00026210BD10B5044629B990F84230012BAF
:102DDC001DD0012010BD042907D190F84330012BE0
:102DEC00F7D1022380F8433014E0082907D190F87A
:102DFC004430012BEDD1022380F844300AE090F8E6
:102E0C004530012BE5D1022380F8453002E0022346
:102E1C0080F8423004222068FFF7C6FF23685A6C02
:102E2C0042F400425A640C4A93420AD0B3F1804FE8
:102E3C0007D0A2F59432934203D002F580629342FC
:102E4C0004D19A6802F00702062A03D01A6842F0ED
:102E5C0001021A600020BDE7002C0140FFF7B2BF51
:102E6C0030B590F83C300246012B4FF0020022D0D6
:102E7C00136882F83D005C680D6824F070042C43E4
:102E8C0098685C600C4CA3420AD0B3F1804F07D019
:102E9C00A4F59434A34203D004F58064A34204D176
:102EAC00496820F08000014399600123002082F8DA
:102EBC003D3082F83C0030BD002C014090F83C3095
:102ECC00012B1FD0CB688A6823F4407313434A68E4
:102EDC0023F4806313430A6823F4006313430A69E1
:102EEC0023F4805313434A6923F400531343CA69F0
:102EFC0023F48043134302685364002380F83C306E
:102F0C0018467047022070477047704708B550B993
:102F1C000D4801F09DFC0D4801F09AFC0A2001F0CF
:102F2C00AFFC022008BDD0F8B43213B10023C0F8B6
:102F3C00B43209B1C0F8B0120123027080F89C328F
:102F4C0000F07EFD0020EDE7C05B0008C85B0008C8
:102F5C0008B519B1C0F8B412002008BD054801F03D
:102F6C0077FC054801F074FC0A2001F089FC022072
:102F7C00F3E700BFC05B0008DE5B000808B500F09B
:102F8C009FFD002008BD08B5D0F8B4320BB9022063
:102F9C0008BD1B6898470028FAD0F8E708B5D0F8A8
:102FAC00B4325B689847002008BD38B500F52A7527
:102FBC000446284600F0E8FA012394F8A812C4F855
:102FCC009432B4F8AE32C4F8983201F01F03012BDE
:102FDC0008D0022B0BD07BB92946204600F0FCF818
:102FEC00002038BD2946204600F020FAF8E7294693
:102FFC00204600F03FFAF3E7204601F0800100F094
:10300C007DFDEDE7F8B5044617460D4639BBD0F803
:10301C009432032B1CD1D0E9586296420BD9B61AC4
:10302C00B2423946C0F860618CBFB2B292B200F0C5
:10303C0008FB2846F8BDD0F8B4321B6923B190F8D0
:10304C009C22032A00D19847204600F002FBF0E7AF
:10305C00052BEED1C4F8941200F050FDE9E7D0F83E
:10306C00B4329B6933B190F89C22032A02D1984761
:10307C000025DEE70225DCE7F8B5044617460D46C9
:10308C00002947D1D0F89432022B3CD1D0E9086307
:10309C009E4214D9F31A394603629AB200F0BCFA74
:1030AC002B462A462946204600F05DFD94F8A032B6
:1030BC00012B02D1002384F8A0322846F8BDC26946
:1030CC00B2FBF3F603FB16265EB9934209D8D0F88F
:1030DC0098329A4205D20A4600F09EFAC4F89852E9
:1030EC00DEE7D4F8B432DB682BB194F89C22032AC7
:1030FC0001D1204698478021204600F0FFFC204655
:10310C0000F0B2FAD2E733F00403CFD1802100F003
:10311C00F5FCCBE7D0F8B4325B6933B190F89C2264
:10312C00032A02D198470025C7E70225C5E70022EC
:10313C0070B50446012540261146402300F0C9FC19
:10314C003346802100222046C4F85851C4F86461EB
:10315C0000F0BFFC0021D4F8B832A561666284F897
:10316C009C52C4F894126160C4F8A41223B1D4F830
:10317C00B43220465B689847002070BD0174002073
:10318C00704790F89C3280F89D32042380F89C3272
:10319C000020704790F89C32042B04BF90F89D32AD
:1031AC0080F89C320020704708B590F89C22032AC6
:1031BC0004D1D0F8B432DB6903B19847002008BDC4
:1031CC0010B50446802100F099FC2046BDE8104063
:1031DC00002100F093BC000037B50B78044603F0D7
:1031EC006003202B0D4612D0402B10D0002B51D158
:1031FC004B78092B4ED8DFE813F0EE000A014D0096
:10320C0003014D00870013004D00D600A300D4F835
:10321C00B432294620469B689847002003B030BD45
:10322C000023ADF806304B881A0A013A062A31D829
:10323C00DFE802F00416233030485200D0F8B032E8
:10324C001B68207C0DF106019847BDF80620002A6A
:10325C0056D0EB88002B4AD1204600F0FAF9DCE777
:10326C00027CD0F8B43232B99B6A0DF10600984753
:10327C0002234370E9E7DB6AF7E7DBB2052B09D8D9
:10328C00DFE803F0030C1014181CD0F8B0325B68A4
:10329C00002BD6D12046FFF793FFBEE7D0F8B03213
:1032AC009B68F5E7D0F8B032DB68F1E7D0F8B032C4
:1032BC001B69EDE7D0F8B0325B69E9E7D0F8B032C2
:1032CC009B69E5E7037C002BE4D1D0F8B4320DF117
:1032DC0006005B6B9847B8E7037C002BDAD1D0F87B
:1032EC00B4320DF106001B6B98470723C1E79A42D5
:1032FC0028BF1A4601462046ADF8062000F07FF99B
:10330C00EB88002B89D1A7E78B88002BC2D1CB8807
:10331C00002BBFD14D887F2DBCD890F89C32032B4D
:10332C00B8D0E9B280F89E1200F00BFC204600F0F9
:10333C0090F91DB1022384F89C326EE70123FAE761
:10334C008978394D01292970A4D890F89C32022B28
:10335C0008D0032B15D0FFF733FF20462978FFF751
:10336C001DFE5AE700293FF477AF0121032341608A
:10337C0080F89C322046FFF706FE02287FF46CAFE3
:10338C0088E731B90223416080F89C32FFF706FED2
:10339C0062E7416801293FF45FAFC9B2FFF7FEFD58
:1033AC0029786160E6E7CA88012A7FF473AF90F848
:1033BC009C32022B0AD8002B3FF46CAF0146002341
:1033CC0041F8083F204600F01AF926E7032B7FF45A
:1033DC0061AF011DF6E790F89C32013B022B3FF6E2
:1033EC0059AFCB88022B7FF455AF0123C360D0F8C3
:1033FC00A4320BB10323C360022204F10C01E1E7F8
:10340C004B88012B7FF409AFC4F8A43224E790F861
:10341C009C32013B022B3FF63DAF4B88012B7FF4D6
:10342C00FCAE0023F0E700BF0C02002038B50B788F
:10343C00044603F06002402A0D4601D05B0615D409
:10344C0094F89C32013B022B10D82B79012B0DD810
:10345C00D4F8B43229469B6820469847EB881BB9B0
:10346C0010B9204600F0F5F8002038BD2046FFF7D3
:10347C00A7FEF9E738B50A78044602F06002202A64
:10348C000B4627D0402A25D092BB5A788D88012A2A
:10349C0009793DD0032A25D052BB90F89C32022BDF
:1034AC004DD0032B24D1142201F00F0315F0800F03
:1034BC0002FB030354D09B69D3B1142301F07F05A5
:1034CC0005FB0333C51811F07F0355D12B60022285
:1034DC00294641E0D4F8B422194620469268904718
:1034EC00002038BD90F89C22022A1FD0032A03D05A
:1034FC002046FFF765FEF3E75A882AB94A0603D03F
:10350C00DB880BB900F0FAFA204600F0A2F8E7E7E6
:10351C0090F89C22022A09D0032AE9D15B88002B5F
:10352C00DED14D06F0D000F0F2FAEDE74B06DFD01D
:10353C0000F0E4FA8021204600F0E0FAD0E74A06D9
:10354C00D6D12B064FF000034FF002024CBF00F116
:10355C00140100F5AA710B60204600F050F8BFE78B
:10356C00D3F85831002BC3D0142301F07F0503FB93
:10357C00050505F5AA75A6E7204600F0D1FA08B1B5
:10358C000123A3E72860A2E70B7803704B78437004
:10359C00CA788B7803EB022343804A790B7903EBCF
:1035AC0002238380CA798B7903EB0223C380704793
:1035BC0010B50446802100F0A1FA2046BDE8104069
:1035CC00002100F09BBA30B588B1002401382346A5
:1035DC000134055D002DFAD1DBB201335B001380A1
:1035EC000B7003234B70022310F8014F04B930BD4C
:1035FC005A1CCC54D2B20233DBB28D54F4E71346CE
:10360C00022210B5C0E90733C0F894220A46002103
:10361C0000F0A0FA002010BD08B513460A460021A0
:10362C0000F098FA002008BD1346032210B5C0E93B
:10363C005733C0F894220A46002100F094FA002077
:10364C0010BD08B513460A46002100F08CFA002084
:10365C0008BD08B50423C0F8943200231A46194655
:10366C0000F078FA002008BD08B50523C0F89432A4
:10367C0000231A46194600F076FA002008BDD0F84F
:10368C00BC3210B56BB1D0F8B84294F80002FF28E8
:10369C0007D09B68214694F801229847FF2384F8B1
:1036AC000032002010BD0000432303800048704707
:1036BC00440000204323038000487047880000200A
:1036CC004323038000487047D80000200A2303805E
:1036DC0000487047CC00002038B50446D0F8B852EA
:1036EC0000F04AFAD4F8B832C5F80C024BB1D4F851
:1036FC00BC32D5F80402DB6805F50371984700204D
:10370C0038BD0220FCE7F8B5D0F8B862D6B1142267
:10371C0002FB0102D4698CB12827D0F8C03207FB18
:10372C0001352B6AB4FBF3F503FB154434B9D461B2
:10373C002346224600F00EFA2046F8BD0020C6F8BB
:10374C001402FAE70220F8E72DE9F7434FF00008DE
:10375C000A78054612F060040E46D0F8B8728DF85F
:10376C000580ADF8068028D0202C42D1CC884B782F
:10377C00E4B1120611D5D0F8BC223946D2F8089023
:10378C0018462246C84739462846F288FFF737FFC5
:10379C004446204603B0BDE8F0832246394687F8FC
:1037AC00003287F80142FFF73FFFF1E7D0F8BC2267
:1037BC00184695682246A847EBE74B780A2B0CD0A5
:1037CC000B2B12D0ABB990F89C32032B11D10222E7
:1037DC000DF10601FFF713FFDBE790F89C32032B8A
:1037EC0007D101220DF10501F4E790F89C32032B6F
:1037FC00CFD031462846FFF7DBFE0224C9E738B5A7
:10380C0004460025812100F070F901212046E56273
:10381C0000F06BF982212046C4F86C5100F065F978
:10382C00D4F8B83225644BB1D4F8BC325B689847F5
:10383C00D4F8B80200F0A8F9C4F8B852002038BD8A
:10384C002DE9F041037C0446BBBB4FF4007302220C
:10385C008121012500F03DF94FF40073E562012749
:10386C0029460222204600F034F908230322822143
:10387C00C4F86C51204600F02CF94FF40770276403
:10388C0000F07EF90546C4F8B80240B34FF00008CA
:10389C00D4F8BC321B689847C5F81482C5F8188256
:1038AC00267C9EB94FF4007339462046D5F8042285
:1038BC0000F059F93046BDE8F08101254023022281
:1038CC00812100F006F94023E562C8E74023394620
:1038DC002046D5F8042200F046F94646EAE73E4673
:1038EC00E8E719B1C0F8BC120020704702207047FD
:1038FC00D0F8B8320020C3F80812C3F81022704771
:10390C00D0F8B8320020C3F804127047D0F8B822AF
:10391C0010B582B1D2F81442012374B9C2F8143232
:10392C00D2F8103281210363D2F808229BB200F046
:10393C0011F9204610BD0220FCE71846FAE7D0F832
:10394C00B82210B582B1047CD2F8042234B94FF4F9
:10395C000073012100F007F9204610BD402301211E
:10396C0000F001F90024F7E70224F5E703289ABFD9
:10397C00014B185C02207047F35B000807B50E4B37
:10398C0002689A4215D103F5DA33DA69032142F45D
:10399C000002DA61DB69002203F4000301931420B6
:1039AC00019BFEF725FC142003B05DF804EBFEF739
:1039BC0051BC03B05DF804FB005C004000F52671BF
:1039CC00D0F8D402FFF7F1BA282303FB0103D0F897
:1039DC00D402D3F86421FFF715BB282303FB0103A2
:1039EC00D0F8D4025A6AFFF747BBD0F8D402FFF7DD
:1039FC00DBBB10B583790446022B01D000F09EFC92
:103A0C00D4F8D4020121FFF7B9FBD4F8D402BDE8F5
:103A1C001040FFF78CBB000010B50446D0F8D40260
:103A2C00FFF7AFFBA37A23B1024A136943F00603F5
:103A3C00136110BD00ED00E0D0F8D402FFF7AABB73
:103A4C0010B51D4B04461D48036008230371022367
:103A5C0083710023C0F8D4424381C4F8C0020373BD
:103A6C00FCF777FB08B100F069FC00221823114623
:103A7C00D4F8C002FDF7C6F9582300228021D4F8EF
:103A8C00C002FDF7BFF9C02300228121D4F8C00287
:103A9C00FDF7B8F94FF4887300220121D4F8C00265
:103AAC00FDF7B0F94FF4807300228221D4F8C002E4
:103ABC00FDF7A8F9002010BD005C004010020020AA
:103ACC0008B5D0F8C002FCF7AAFBBDE80840FFF728
:103ADC004DBF10B51446D0F8C0021A462346FDF768
:103AEC009BF8BDE81040FFF741BF08B5D0F8C00205
:103AFC00FDF7C2F8BDE80840FFF738BF08B5D0F8AD
:103B0C00C002FDF717F9BDE80840FFF72FBF08B555
:103B1C00D0F8C002FDF744F9BDE80840FFF726BF16
:103B2C00282211F0800FD0F8C0321BBF01F07F01AA
:103B3C0002FB013102FB0131887C08BF91F8520174
:103B4C00704708B5D0F8C002FCF782FBBDE808400E
:103B5C00FFF70CBF08B5D0F8C002FDF7D4F8BDE8EC
:103B6C000840FFF703BF08B5D0F8C002FDF7ACF86A
:103B7C00BDE80840FFF7FABED0F8C002FDF7BBB8AD
:103B8C0000487047E80400207047704708B50022D1
:103B9C000E490F48FFF7BAF908B100F0CFFB0D49F9
:103BAC000B48FFF7D5F908B100F0C8FB0A490848E3
:103BBC00FFF797FE08B100F0C1FB0548FFF7DEF9EF
:103BCC0018B1BDE8084000F0B9BB08BD1C010020CD
:103BDC00080700200C0000206C0100201223014873
:103BEC000B80704738010020042301480B8070477C
:103BFC004C010020002370B51E464D1C040FB0F183
:103C0C00204F34BF3034373401F8134005F81360BB
:103C1C000133DCB2A2424FEA0010EFD870BD0000B5
:103C2C001A2310B50B800A4BD3F8E807D3F8F0270A
:103C3C0080180AD0D3F8EC4706490822FFF7DAFFC0
:103C4C00042220461031FFF7D5FF034810BD00BFFA
:103C5C0000F0FF1F520100205001002010B5044C51
:103C6C000A4604482146FFF7AEFC204610BD00BFB3
:103C7C00CC090020F75B000810B5044C0A46044838
:103C8C002146FFF7A0FC204610BD00BFCC09002048
:103C9C000A5C000810B5044C0A4604482146FFF79C
:103CAC0092FC204610BD00BFCC090020205C00080F
:103CBC0010B5044C0A4604482146FFF784FC204604
:103CCC0010BD00BFCC0900202B5C00080020704701
:103CDC00002070470122084B10B51A70074C0A6877
:103CEC00074B014620461A60FFF70AFE2046FFF7F5
:103CFC0026FE002010BD00BFCC0B002008070020C2
:103D0C00D00B002010B5064C002220460549FFF7C9
:103D1C00EFFD20460449FFF7F3FD002010BD00BF66
:103D2C0008070020D40F0020D40B002010B5094C3C
:103D3C000A46D4F8B832D3F8143243B901462046B7
:103D4C00FFF7D6FD2046BDE81040FFF7DFBD012090
:103D5C0010BD00BF08070020184B05282BD8DFE842
:103D6C0000F0030E151C2025002259639A63DA63B8
:103D7C0041F25502202112481A62FEF713BE0022AE
:103D8C0059639A63DA6341F20552F3E700225A63EE
:103D9C009963DA6341F25052ECE700225A6399635B
:103DAC00E5E700225A639A63D963ECE700225A6371
:103DBC009A63D963EEE74FF48052DBE7002C0140A5
:103DCC00481400204FF48052044B20211A62002228
:103DDC0003485A639A63DA63FEF7E4BD002C014092
:103DEC0048140020002382B001930A235843019BFE
:103DFC00984201D802B0704700BF019B0133019378
:103E0C00F5E70000F8B50B46164658B14FF47A7139
:103E1C000C4C4B43B4FBF0F400256708B3FBF4F4F3
:103E2C00AC4200D1F8BD31460520FFF795FF38466E
:103E3C00FFF7D8FFFFF7C6FF3846FFF7D3FF013572
:103E4C00EEE700BF40420F0070B51646044600EB8B
:103E5C008105AC4203D1BDE87040FFF7B3BF2088A9
:103E6C0048B9FFF7AFFF6088FDF76AFD1420FDF736
:103E7C0067FD0434EDE732466188FFF7C3FFF5E7D1
:103E8C0010B594B0142200210CA800F0D9FC142217
:103E9C0000210DEB020000F0D3FC1022002101A840
:103EAC0000F0CEFC02244FF480330122CDE9114303
:103EBC00CDE90A234FF4E0130AA80E921393FDF7F1
:103ECC0051FD08B172B6FEE70F23CDE905344FF46E
:103EDC0080630790CDE90830214605A8FDF70AFF5D
:103EEC0008B172B6FEE7122301934FF40043CDE9FB
:103EFC00033001A8FDF7B8FF08B172B6FEE7FDF775
:103F0C00CDFE14B010BD00002DE9F04192B0FDF7CC
:103F1C00F3FCFFF7B5FF00F013FA00F05FFA00F0C6
:103F2C003FFBFFF733FE714A714CD2F8FC3044F67C
:103F3C00206043F08073C2F8FC3000226D4B5A6055
:103F4C001A6842F001021A60FDF7FAFC2046FEF7EF
:103F5C00F7FA08B172B6FEE76FF004022368204648
:103F6C001A606FF002021A60FEF75AFB054608B1A0
:103F7C0072B6FEE7604C0C212046FEF713FF294673
:103F8C002046FEF70FFF29462046FEF767FF042167
:103F9C002046FEF707FF04212046FEF75FFF0821AD
:103FAC002046FEF7FFFE08212046FEF757FF226849
:103FBC001B21536C514843F400435364FFF7B6FE86
:103FCC004FF49672AA214E48FFF73EFF40F6B830E8
:103FDC00FDF7B6FC4FF47A710520FFF7BDFE1821F2
:103FEC004848FFF7A3FE3220FDF7AAFC4FF42F73CD
:103FFC00454C1B212570454D45482B60FFF796FE1F
:10400C00444E454F337803F0FF08002B3ED1207807
:10401C002968FFF7A1FE237840490133DBB22370F6
:10402C0023783F4A052B0B7888BF84F80080013336
:10403C00DBB2022B0B700ED913680020C82B84BF87
:10404C000A3B136040F6B7330870296899429EBF4B
:10405C002B6805332B60002301931368019903EB44
:10406C00830088420ED82F4A12689342CAD8214A3C
:10407C0051682D4A1160232253432C4A13600123AB
:10408C003370BFE700BF019B0133E5E7194B264AAC
:10409C005B681268DFF898809B1ABB4282BF0022D3
:1040AC00224B1A60FDF746FCD8F80030C01AC8281D
:1040BC00A8D9FDF73FFC1D4BC8F800001A6892B157
:1040CC001A681C49C2EBC202B1FBF2F22B681A4906
:1040DC0002A800F0E9FB02A8FCF732F881B202A8B2
:1040EC00FFF724FE8EE716211448F9E700ED00E0F7
:1040FC0018140020001000E048140020395C00085F
:10410C00BC5C0008545C0008FA13002080010020FD
:10411C006C5C0008F813002000512502F9130020F4
:10412C00840100207C010020EC130020F4130020FB
:10413C00F01300200054EA2A875C0008A55C0008F4
:10414C002DE9F84F0268674B04469A4240F0828092
:10415C00654B664A1968DFF898911160D9F8001020
:10416C00DFF890A1644ECAF800103168634FDFF895
:10417C0090B13960DBF80010DFF888811960D8F84D
:10418C000010614DC9F80010296831600121FEF75B
:10419C00A1FA0221CBF800002046FEF79BFA03217E
:1041AC00C8F800002046FEF795FA4F4B4F4A28609E
:1041BC0012681968DBF800300A4403211A44B2FB78
:1041CC00F1F252480260DAF80020D9F800C0D8F8B1
:1041DC00003062441A44B2FBF1F2DFF834C1CCF87F
:1041EC0000203B6836682A6833441344B3FBF1F370
:1041FC00484A1360484B1B78012B23D1474B484E40
:10420C005968484D3368C91A2B68ABB12B689B08A9
:10421C008B4217D80368DCF8007011683B440B44E0
:10422C000321B3FBF1F340490F78052F46D8DFE8A3
:10423C0007F006133C3E40434FF46163E8E7126815
:10424C009A420DD36FF0040223681A605A6842F048
:10425C0080025A60BDE8F88FDCF800209A42F1D950
:10426C002E4B5A6833683260D31A6FF46162981817
:10427C002E4A2F4E90422F4829D802681344327888
:10428C0003600132D2B2052A32701AD80B7801338E
:10429C00DBB20B700B78052B84BF00230B70264B05
:1042AC0008781968FFF758FDCCE70268C8E7126870
:1042BC00D4E7DCF80020C3E70268CFE700230B70DB
:1042CC00C0E70622B3FBF2F32A6822B92B60002365
:1042DC0003603370DAE72A6802EB420213449B084E
:1042EC00F4E700BF002401400C140020001400204F
:1042FC0010140020041400201414002008140020B2
:10430C00E0130020E4130020E8130020D413002055
:10431C00D8130020DC130020F8130020001000E05C
:10432C00EC130020F4130020FA1300206EE036008A
:10433C00FB130020FC1300208001002072B6FEE766
:10434C00002310B588B0CDE9063303F1804303F5A3
:10435C0004339A69032442F010029A619A6904A901
:10436C0002F010020092009A9A69194842F0200259
:10437C009A619A6902F020020192019A9A6942F0BC
:10438C0004029A619A6902F004020292029A9A69F2
:10439C0042F008029A619B6903F008030393039BA4
:1043AC004FF46043CDE90434FDF736FE48F2F803D0
:1043BC0004A90848CDE90434FDF72EFE41F6FF733D
:1043CC00054804A9CDE90434FDF726FE08B010BD5C
:1043DC000010014000080140000C014070B588B08D
:1043EC001C22002101A800F02BFA1E481E4B0024B1
:1043FC0003604FF4807383604FF46023C361012327
:10440C000473047544600361FEF71CF808B1FFF7F0
:10441C0095FF012602250323124801A9CDE9026567
:10442C000794019404940593ADF81840FEF762F9D3
:10443C0008B1FFF783FF0B4801A9CDE90165FEF731
:10444C0059F908B1FFF77AFF02220323054801A9A5
:10445C00CDE90123FEF74EF908B1FFF76FFF08B065
:10446C0070BD00BF181400200024014010B5044694
:10447C0086B01022002102A800F0E2F92268144B49
:10448C009A4223D103F56C439A69124842F40072A4
:10449C009A619A6902A902F400720092009A9A69D0
:1044AC0042F004029A619B69072203F00403019312
:1044BC00019B0323CDE90223FDF7AEFD1220002260
:1044CC000121FDF795FE1220FDF7C4FE06B010BDCC
:1044DC00002401400008014007B5124B02689A42C3
:1044EC001DD103F564439A69182042F400629A6165
:1044FC0000229B69114603F400630193019BFDF7B5
:10450C0077FE1820FDF7A6FE002202211920FDF7E8
:10451C006FFE192003B05DF804EBFDF79BBE03B0F2
:10452C005DF804FB002C014010B5044686B0102247
:10453C00002102A800F084F92268164B9A4226D179
:10454C0003F564439A69022442F008029A619A695D
:10455C00114802F008020092009A9A6902A942F0EE
:10456C0004029A619B69059403F004030193019B77
:10457C004FF46043CDE90234FDF74EFD4FF4E06398
:10458C00064802A9CDE902340594FDF745FD06B0B5
:10459C0010BD00BF002C0140000C01400008014080
:1045AC0030B50024202593B021461C2203A8CDE968
:1045BC00014400F045F921462A460AA800F040F9CA
:1045CC002F48304B4461C0E9003440F60F63C0E91A
:1045DC000334802485608461FEF7D0FA08B1FFF7BC
:1045EC00ADFE7023264801A9CDE90134FEF738FC55
:1045FC0008B1FFF7A3FE00226023214803A9CDE9EF
:10460C000332CDE90522CDE907220992FEF70EFB14
:10461C0008B1FFF793FE0422194803A9FEF706FB25
:10462C0008B1FFF78BFE0822154803A9FEF7FEFA26
:10463C0008B1FFF783FE0C2240F6DD5310480DEB5A
:10464C0002010493FEF7F2FA08B1FFF777FE24217A
:10465C004FF480520023CDE90D124FF4005208485C
:10466C000AA9CDE90A330C930F921193FEF726FC9D
:10467C0008B1FFF763FE0248FFF756FF13B030BDD9
:10468C0048140020002C014008B5FDF7E1FBFEE7C3
:10469C00FEE7FEE7FEE7FEE7704770477047FDF761
:1046AC003DB900000148FDF7F9BD00BF181400200A
:1046BC000148FBF7E1BD00BF100200200148FEF7E6
:1046CC0088B900BF48140020FFF7F8BF0E4B82B02A
:1046DC009A6942F001029A619A6902F00102009211
:1046EC00009ADA6942F08052DA61DB69074A03F01A
:1046FC0080530193019B536823F0E06343F00073F4
:10470C00536002B0704700BF00100240000001402F
:10471C000B4A0346116810B509B90A4911601068B3
:10472C0009490A4C0344091B8B4206D900F05EF878
:10473C000C2303604FF0FF3010BD1360FCE700BF8B
:10474C0090140020A814002000500020001000003D
:10475C0070B50D4614460E46731B9C4201DC204678
:10476C0070BDAFF3008006F8010BF5E770B50D4690
:10477C0014460E46731B9C4201DC204670BD16F895
:10478C00010BAFF30080F5E74FF0FF3070474FF4AB
:10479C00005300204B607047012070470020704789
:1047AC00FBF7D6FC0B480C490C4A002302E0D4580A
:1047BC00C4500433C4188C42F9D3094A094C002361
:1047CC0001E013600432A242FBD300F015F8FFF7AE
:1047DC009BFB704700000020EC01002004600008E7
:1047EC00EC010020A4140020FEE70000014B186827
:1047FC00704700BF8801002070B500260C4D0D4C91
:10480C00641BA410A64209D101F0AAF900260A4D96
:10481C000A4C641BA410A64205D170BD55F8043B8C
:10482C0098470136EEE755F8043B98470136F2E716
:10483C00FC5F0008FC5F0008FC5F000800600008DB
:10484C0003460244934200D1704703F8011BF9E779
:10485C000FB40A4B13B51C6824B1A36913B92046D5
:10486C0000F09AF805AB2046049AA168019300F079
:10487C0011FB02B0BDE8104004B070478801002065
:10488C0038B5084B05461C6824B1A36913B92046FA
:10489C0000F082F829462046A268BDE8384000F0B6
:1048AC00BFBD00BF880100200EB46FF0004100B501
:1048BC009CB01DAB029006900791049108480949E1
:1048CC0053F8042B0591006802A9019300F0BAF982
:1048DC000022029B1A701CB05DF804EB03B0704709
:1048EC00880100200802FFFF002310B50446C0E930
:1048FC000033C0E90433836081814366C2818361E4
:10490C00194608225C30FFF79BFF054B246263625B
:10491C00044BA362044BE362044B236310BD00BF42
:10492C00DD540008FF540008375500085B5500089B
:10493C00014900F0AFB800BF2D580008682270B5CF
:10494C004D1E55430E4605F1740100F0C5F80446A2
:10495C0040B10021C0E900160C30A06005F16802DE
:10496C00FFF76EFF204670BD014800F0B3B800BFE2
:10497C0095140020014800F0AEB800BF951400203B
:10498C00014800F0A7B800BF96140020014800F0C1
:10499C00A2B800BF9614002010B50446FFF7F0FF34
:1049AC00A3691BB1BDE81040FFF7F0BFC4E9123397
:1049BC002365134B134A1B68A262A34208BF012351
:1049CC00204608BFA36100F01FF86060204600F08D
:1049DC001BF8A060204600F017F800220421E060CC
:1049EC006068FFF781FF01220921A068FFF77CFFB7
:1049FC0002221221E068FFF777FF0123A361D1E7C0
:104A0C00645F00083D490008F8B50746FFF7ACFFA6
:104A1C001E4B1E68B36913B93046FFF7BDFF48360D
:104A2C00D6E90134013B03D533680BB33668F7E79D
:104A3C00B4F90C50D5B9164B04F15800E360656617
:104A4C0000F047F8FFF796FF08222946C4E9015504
:104A5C00C4E904552560A56104F15C00FFF7F0FE84
:104A6C00C4E90D55C4E912552046F8BD6834D9E7A0
:104A7C0004213846FFF762FF044630600028D5D188
:104A8C00FFF778FF0C233B60EEE700BF645F000884
:104A9C000100FFFF2DE9F84306468846002700F188
:104AAC004804D4E90195B9F1010905D52468002C15
:104ABC00F7D13846BDE8F883AB89012B07D9B5F996
:104ACC000E30013303D029463046C04707436835C2
:104ADC00E9E7704770477047F8B5CD1C25F0030522
:104AEC0008350C2D38BF0C25002D064601DBA942DC
:104AFC0003D90C2333600020F8BD00F07BFF214963
:104B0C000A6814469CB9204F3B6823B921463046AD
:104B1C0000F0CEFC38602946304600F0C9FC431C3E
:104B2C0023D10C233046336000F06AFFE3E723689F
:104B3C005B1B17D40B2B03D923601C44256004E0AA
:104B4C006368A2420CBF0B605360304600F058FF04
:104B5C0004F10B00231D20F00700C21ACCD01B1A45
:104B6C00A350C9E722466468CCE7C41C24F00304B4
:104B7C00A042E3D0211A304600F09AFC0130DDD17E
:104B8C00CFE700BF981400209C1400202DE9F047BB
:104B9C008E6882469E420C4690461F4638D88A89BB
:104BAC0012F4906F32D0256809690133A5EB010925
:104BBC0065694B4405EB450505EBD5756D109D42BC
:104BCC0038BF1D46530531D52946FFF785FF0646EC
:104BDC0050B90C234FF0FF30CAF80030A38943F0D2
:104BEC004003A381BDE8F0874A46216900F0DAFE54
:104BFC00A38923F4906343F08003A38126614E4480
:104C0C0026603E466561A5EB0905A560BE4200D94C
:104C1C003E4632464146206800F0D2FEA368002092
:104C2C009B1BA360236833442360DBE72A4600F018
:104C3C0035FF06460028E1D15046216900F0E6FE1A
:104C4C00C7E700002DE9F04F98468B8907461B06F5
:104C5C000D4614469DB00ED50B6963B94021FFF784
:104C6C003BFF2860286120B90C233B604FF0FF30DC
:104C7C00D1E040236B610023099320238DF8293068
:104C8C0030234FF00109CDF80C80DFF8A4818DF8AA
:104C9C002A3023469A4613F8012B0AB1252AF9D15A
:104CAC00BAEB040B0BD05B46224629463846FFF77D
:104CBC006DFF013000F0AA80099A5A4409929AF8C3
:104CCC000030002B00F0A28000234FF0FF32CDE922
:104CDC0005230AF1010A049307938DF853301A93B4
:104CEC005446052214F8011B514800F04DFE049A5D
:104CFC00D8B9D00644BF20238DF85330110744BFD8
:104D0C002B238DF853309AF800302A2B15D05446AB
:104D1C0000204FF00A0C079A214611F8013B303B5A
:104D2C00092B4ED9B0B1079214E0A0EB080309FA95
:104D3C0003F31343A2460493D2E7039B191D1B688C
:104D4C000391002BBBBF5B4242F002020793079317
:104D5C00B8BF049223782E2B0CD163782A2B35D133
:104D6C00039B02341A1D1B680392002BB8BF4FF033
:104D7C00FF330593DFF8BCA003225046217800F0E6
:104D8C0003FE40B14023A0EB0A0003FA00F0049BA1
:104D9C0001340343049314F8011B062226488DF8B2
:104DAC00281000F0F1FD002838D0244B1BBB039BCE
:104DBC00073323F0070308330393099B3344099308
:104DCC0067E70C4601200CFB0232A5E700234FF0ED
:104DDC000A0C194601340593204610F8012B303A81
:104DEC00092A03D9002BC5D00591C3E7044601233A
:104DFC000CFB0121F0E703AB00932A463846104B1D
:104E0C0004A9AFF30080421C0646D6D1AB895B06E1
:104E1C003FF52CAF09981DB0BDE8F08F03AB0093A4
:104E2C002A463846064B04A900F0D4F9EBE700BF3C
:104E3C00C85F0008CE5F0008D25F000800000000C9
:104E4C00994B0008936810B4013B002B936007DA70
:104E5C009469A34201DB0A2902D110BC00F07CBB8F
:104E6C001368581C10601970084610BC7047F8B5D0
:104E7C0006460F461446D518AC4201D1002007E077
:104E8C003A46304614F8011BFFF7DCFF431CF3D104
:104E9C00F8BD00002DE9F04F0D4614469846064625
:104EAC009DB018B183690BB9FFF776FD894B9D4214
:104EBC001BD175686B6ED90705D4AB899A0502D4E2
:104ECC00A86DFFF707FEAB891B0701D52B69EBB962
:104EDC002946304600F0A4FBC0B16B6EDC070ED542
:104EEC004FF0FF301DB0BDE8F08F7B4B9D4201D1E0
:104EFC00B568DFE7794B9D4208BFF568DAE7AB8907
:104F0C009805EDD4A86DFFF7E6FDE9E700230993BA
:104F1C0020238DF8293030234FF00109CDF80C8077
:104F2C00DFF8BC818DF82A3023469A4613F8012B02
:104F3C000AB1252AF9D1BAEB040B0BD05B462246F9
:104F4C0029463046FFF793FF013000F0AA80099AFA
:104F5C005A4409929AF80030002B00F0A2800023EA
:104F6C004FF0FF32CDE905230AF1010A04930793B0
:104F7C008DF853301A935446052214F8011B5848E7
:104F8C0000F002FD049AD8B9D10644BF20238DF855
:104F9C005330130744BF2B238DF853309AF800304D
:104FAC002A2B15D0544600204FF00A0C079A2146A4
:104FBC0011F8013B303B092B4ED9B0B1079214E0EC
:104FCC00A0EB080309FA03F31343A2460493D2E7B8
:104FDC00039B191D1B680391002BBBBF5B4242F066
:104FEC00020207930793B8BF049223782E2B0CD19F
:104FFC0063782A2B35D1039B02341A1D1B6803924C
:10500C00002BB8BF4FF0FF330593DFF8D8A0032275
:10501C005046217800F0B8FC40B14023A0EB0A00C8
:10502C0003FA00F0049B01340343049314F8011BAE
:10503C0006222D488DF8281000F0A6FC00283FD041
:10504C002A4B1BBB039B073323F007030833039343
:10505C00099B3B44099367E70C4601200CFB023289
:10506C00A5E700234FF00A0C19460134059320469E
:10507C0010F8012B303A092A03D9002BC5D0059121
:10508C00C3E7044601230CFB0121F0E703AB0093BB
:10509C002A463046164B04A9AFF300800746781C0D
:1050AC00D6D16B6ED90705D4AB899A0502D4A86DFD
:1050BC00FFF711FDAB895B063FF512AF099811E7BD
:1050CC0003AB00932A463046094B04A900F082F842
:1050DC00E4E700BF885F0008A85F0008685F00086D
:1050EC00C85F0008CE5F0008D25F00080000000017
:1050FC007B4E00082DE9F047164699468A680B69E5
:10510C0007469342B8BF1346336091F843200C46D0
:10511C00DDF820800AB1013333602368990642BF61
:10512C00336802333360256815F0060506D104F1A7
:10513C00190AE36832689B1AAB4228DC94F84320C6
:10514C00131E226818BF012392062DD449463846F7
:10515C0004F14302C047013020D02368E56803F016
:10516C000603042B18BF002532684FF00006A36815
:10517C0008BFAD1A226908BF25EAE5759342C4BF82
:10518C009B1AED181A34B5421AD1002008E00123FD
:10519C00524649463846C047013003D14FF0FF30E4
:1051AC00BDE8F0870135C4E73020E11881F84300F1
:1051BC005A1C94F845102244023382F84310C5E778
:1051CC000123224649463846C0470130E6D0013615
:1051DC00D9E700002DE9FF470F7E9146782F8046D6
:1051EC000C469A460C9D01F1430207D8622F0AD84F
:1051FC00002F00F0D980582F00F0A48004F1420554
:10520C0084F842703AE0A7F16303152BF6D801A19C
:10521C0051F823F0795200088D5200080952000809
:10522C000952000809520008095200088D52000862
:10523C0009520008095200080952000809520008D6
:10524C009B530008BD5200087D530008095200080A
:10525C0009520008BD53000809520008BD5200084D
:10526C000952000809520008855300082B681A1DC2
:10527C001B682A6004F1420584F842300123A4E043
:10528C0020682968060601F104030AD50E682B6014
:10529C00002E03DA2D23764284F843300A235E482D
:1052AC0019E00E6810F0400F2B6018BF36B2EFE714
:1052BC002B682068191D2960010601D51E6802E0C3
:1052CC004606FBD51E886F2F0CBF08230A235248B5
:1052DC00002184F843106568002DA8BF2168A560E3
:1052EC00A4BF21F0040121600EB9002D4DD015464C
:1052FC00B6FBF3F103FB1167C75D05F8017D37467B
:10530C00BB420E46F4D9082B0BD12368DE0708D517
:10531C00236961689942DEBF302305F8013C05F131
:10532C00FF35521B22614B4621464046CDF800A06A
:10533C0003AAFFF7DFFE01304CD14FF0FF3004B071
:10534C00BDE8F087344881F845702968236851F826
:10535C00046B29601D0614D5DF0744BF43F02003FE
:10536C0023601EB9236823F0200323601023AFE7CA
:10537C00236843F0200323607823284884F84530C1
:10538C00E3E7590648BFB6B2E6E71546BBE72B681C
:10539C002668181D6169286035061B6801D51960DF
:1053AC0002E07006FBD51980002315462361BAE78D
:1053BC002B6800211A1D2A601D686268284600F0BF
:1053CC00E3FA08B1401B606063682361002384F832
:1053DC004330A8E72A46494640462369D047013066
:1053EC00ABD023689B0713D4E068039B9842B8BFEB
:1053FC001846A4E70123324649464046D0470130BF
:10540C009BD00135E36803995B1AAB42F2DCEBE706
:10541C00002504F11906F5E7D95F0008EA5F0008DA
:10542C0070B50D461446064618B183690BB9FFF7E3
:10543C00B3FA1C4B9C4224D17468636ED80705D414
:10544C00A389990502D4A06DFFF744FBA368013B27
:10545C00002BA36005DAA26993421CDBEBB20A2B8A
:10546C0019D023685A1C22601D70EDB2636EDA07E6
:10547C0005D4A3899B0502D4A06DFFF72CFB28460D
:10548C0070BD094B9C4201D1B468D6E7074B9C42D6
:10549C0008BFF468D1E729462246304600F05CF894
:1054AC000546E3E7885F0008A85F0008685F00080E
:1054BC0038B50023054D044608462B60FFF728F944
:1054CC00431C02D12B6803B1236038BDA01400200B
:1054DC0010B50C46B1F90E1000F006FB0028ABBF5E
:1054EC00636DA3891B1823F48053ACBF6365A38140
:1054FC0010BD2DE9F0411F468B890546DB050C4696
:10550C00164605D502230022B1F90E1000F0C4F99D
:10551C00A389324623F48053A38128463B46B4F931
:10552C000E10BDE8F04100F069B810B50C46B1F9A9
:10553C000E1000F0B1F9431CA38915BF606523F46C
:10554C00805343F48053A38118BFA38110BDB1F9DC
:10555C000E1000F0D3B80000F8B50E461446054600
:10556C0018B183690BB9FFF717FA214B9C422BD169
:10557C006C68A369A360A3891A072FD523696BB341
:10558C0023692068F6B2C01A63693746834204DC8B
:10559C002146284600F044F930BBA3680130013B9A
:1055AC00A36023685A1C22601E706369834204D076
:1055BC00A389DB0706D50A2E04D12146284600F024
:1055CC002FF988B93846F8BD0A4B9C4201D1AC681A
:1055DC00CFE7094B9C4208BFEC68CAE72146284636
:1055EC0000F01EF80028CBD04FF0FF37EAE700BFE1
:1055FC00885F0008A85F0008685F000838B504469B
:10560C00084611460022054D2A601A46FFF7AEF8EF
:10561C00431C02D12B6803B1236038BDA0140020B9
:10562C00324B70B51D6806460C4625B1AB6913B9F3
:10563C002846FFF7B1F92E4B9C420FD16C68A38919
:10564C00B4F90C2019072CD4DD0611D409233360CE
:10565C0042F040034FF0FF30A3813EE0254B9C42CB
:10566C0001D1AC68EBE7244B9C4208BFEC68E6E741
:10567C00580712D5616B41B104F14403994202D031
:10568C00304600F0C3F900236363A38923F024039D
:10569C00A3810023636023692360A38943F008037B
:1056AC00A38123694BB9A38903F42073B3F5007F5D
:1056BC0003D02146304600F027F9A089B4F90C201C
:1056CC0010F001030AD00023A36063695B42A3615D
:1056DC00236943B910F08000BAD170BD810758BF5F
:1056EC006369A360F4E70020F7E700BF880100209E
:1056FC00885F0008A85F0008685F000838B50023C1
:10570C00054D044608462B60FFF73EF8431C02D1BA
:10571C002B6803B1236038BDA01400208A89F8B52A
:10572C00054610070C4657D44B68002B04DC0B6C59
:10573C00002B01DC0020F8BDE66A002EFAD0002315
:10574C0012F480522F682B6032D0606DA3895A07F7
:10575C0005D56368C01A636B0BB1236CC01A0023A8
:10576C000246E66A2846216AB047431CA38906D143
:10577C0029681D292CD8294ACA40D60728D50022C9
:10578C0062602269D904226004D5421C01D12B68C5
:10579C0003B96065616B2F600029CBD004F1440321
:1057AC00994202D0284600F031F900206063C2E72C
:1057BC00216A01232846B047411CC7D12B68002B16
:1057CC00C4D01D2B01D0162B01D12F60B2E7A389B9
:1057DC0043F04003A381AEE70F69002FAAD09307D3
:1057EC0018BF00230E6808BF4B69F61B0F608B6057
:1057FC00002E9FDD33463A462846216AD4F828C04D
:10580C00E047002806DCA3894FF0FF3043F040034B
:10581C00A38190E70744361AEAE700BF0100402055
:10582C0038B50B6905460C4613B90025284638BD1A
:10583C0018B183690BB9FFF7AFF8144B9C421BD11D
:10584C006C68B4F90C30002BEFD0626ED00704D426
:10585C00990502D4A06DFFF73DF928462146FFF7C4
:10586C005DFF636E0546DA07E0D4A3899B05DDD4A2
:10587C00A06DFFF730F9D9E7054B9C4201D1AC681C
:10588C00DFE7044B9C4208BFEC68DAE7885F00084E
:10589C00A85F0008685F000838B504460846114642
:1058AC000022054D2A601A46FEF778FF431C02D1F0
:1058BC002B6803B1236038BDA014002070B50E46D0
:1058CC00B1F90E10144600291D4696B008DA0022D4
:1058DC00B6F90C302A601A0610D44FF480630EE02F
:1058EC006A4600F013F90028F1DB019A02F47042C9
:1058FC00A2F500535A425A412A60EEE74023002099
:10590C00236016B070BD00008B8973B59D070646E9
:10591C000C4607D504F1470323602361012363611F
:10592C0002B070BD6A4601ABFFF7C8FF009905468F
:10593C003046FFF7D1F848B9B4F90C309A05EFD4DA
:10594C0023F0030343F00203A381E3E70D4BB3629F
:10595C00A389206043F08003A381009B20616361D5
:10596C00019B5BB13046B4F90E1000F0E1F828B1A0
:10597C00A38923F0030343F00103A381A08905430A
:10598C00A581CDE73D490008034610B5C9B20244D4
:10599C009342184601D1002003E0047801338C4275
:1059AC00F6D110BD0A44914200F1FF3300D170478B
:1059BC0010B511F8014B914203F8014FF9D110BD0C
:1059CC00884210B501EB020402D98442234607D861
:1059DC00431EA14208D011F8012B03F8012FF8E760
:1059EC00014602448A4200D110BD13F8014D02F861
:1059FC00014DF7E70148FFF76DB800BF9414002084
:105A0C000148FFF768B800BF9414002038B505466C
:105A1C00002940D051F8043C0C1F002BB8BFE418EF
:105A2C00FFF7E8FF1C4A136833B96360146028461B
:105A3C00BDE83840FFF7E4BFA34208D9206821181D
:105A4C008B4201BF19685B6809182160EDE71A46A3
:105A5C005B680BB1A342FAD911685018A0420BD164
:105A6C0020680144501883421160E0D118685B68CB
:105A7C00014411605360DAE702D90C232B60D6E79E
:105A8C00206821188B4201BF19685B6809182160D6
:105A9C0063605460CBE738BD98140020F8B5074616
:105AAC0014460E4621B91146BDE8F840FFF714B86C
:105ABC0022B9FFF7ABFF25462846F8BD00F048F8A1
:105ACC00A0420FD221463846FFF706F805460028BB
